{
  "_format": "hh-sol-artifact-1",
  "contractName": "GameOfLife",
  "sourceName": "contracts/GameOfLife.sol",
  "abi": [
    {
      "inputs": [],
      "stateMutability": "nonpayable",
      "type": "constructor"
    },
    {
      "anonymous": false,
      "inputs": [
        {
          "indexed": true,
          "internalType": "address",
          "name": "player",
          "type": "address"
        },
        {
          "indexed": false,
          "internalType": "uint256",
          "name": "timestamp",
          "type": "uint256"
        }
      ],
      "name": "GameStarted",
      "type": "event"
    },
    {
      "anonymous": false,
      "inputs": [
        {
          "indexed": true,
          "internalType": "address",
          "name": "creator",
          "type": "address"
        },
        {
          "indexed": false,
          "internalType": "string",
          "name": "ipfsHash",
          "type": "string"
        },
        {
          "indexed": false,
          "internalType": "bytes32",
          "name": "patternId",
          "type": "bytes32"
        }
      ],
      "name": "PatternSaved",
      "type": "event"
    },
    {
      "inputs": [],
      "name": "SAVE_PATTERN_FEE",
      "outputs": [
        {
          "internalType": "uint256",
          "name": "",
          "type": "uint256"
        }
      ],
      "stateMutability": "view",
      "type": "function"
    },
    {
      "inputs": [],
      "name": "START_GAME_FEE",
      "outputs": [
        {
          "internalType": "uint256",
          "name": "",
          "type": "uint256"
        }
      ],
      "stateMutability": "view",
      "type": "function"
    },
    {
      "inputs": [
        {
          "internalType": "address",
          "name": "",
          "type": "address"
        }
      ],
      "name": "gamesPlayed",
      "outputs": [
        {
          "internalType": "uint256",
          "name": "",
          "type": "uint256"
        }
      ],
      "stateMutability": "view",
      "type": "function"
    },
    {
      "inputs": [
        {
          "internalType": "address",
          "name": "player",
          "type": "address"
        }
      ],
      "name": "getPlayerStats",
      "outputs": [
        {
          "internalType": "uint256",
          "name": "totalGames",
          "type": "uint256"
        }
      ],
      "stateMutability": "view",
      "type": "function"
    },
    {
      "inputs": [],
      "name": "owner",
      "outputs": [
        {
          "internalType": "address",
          "name": "",
          "type": "address"
        }
      ],
      "stateMutability": "view",
      "type": "function"
    },
    {
      "inputs": [
        {
          "internalType": "bytes32",
          "name": "",
          "type": "bytes32"
        }
      ],
      "name": "patterns",
      "outputs": [
        {
          "internalType": "address",
          "name": "creator",
          "type": "address"
        },
        {
          "internalType": "string",
          "name": "ipfsHash",
          "type": "string"
        },
        {
          "internalType": "uint256",
          "name": "timestamp",
          "type": "uint256"
        },
        {
          "internalType": "bool",
          "name": "exists",
          "type": "bool"
        }
      ],
      "stateMutability": "view",
      "type": "function"
    },
    {
      "inputs": [
        {
          "internalType": "string",
          "name": "ipfsHash",
          "type": "string"
        }
      ],
      "name": "savePattern",
      "outputs": [],
      "stateMutability": "payable",
      "type": "function"
    },
    {
      "inputs": [],
      "name": "startGame",
      "outputs": [],
      "stateMutability": "payable",
      "type": "function"
    },
    {
      "inputs": [],
      "name": "withdraw",
      "outputs": [],
      "stateMutability": "nonpayable",
      "type": "function"
    }
  ],
  "bytecode": "0x608060405234801561001057600080fd5b50600280546001600160a01b031916331790556108ff806100326000396000f3fe6080604052600436106100865760003560e01c80638da5cb5b116100595780638da5cb5b1461012b5780639b0c7a6a14610163578063a3b03ead14610193578063d65ab5f2146101ae578063f09409f3146101b657600080fd5b8063024c9b2d1461008b5780633ccfd60b146100a05780634fd66eae146100b557806370180bc1146100fe575b600080fd5b61009e6100993660046105b4565b6101d1565b005b3480156100ac57600080fd5b5061009e6103b8565b3480156100c157600080fd5b506100eb6100d0366004610626565b6001600160a01b031660009081526001602052604090205490565b6040519081526020015b60405180910390f35b34801561010a57600080fd5b506100eb610119366004610626565b60016020526000908152604090205481565b34801561013757600080fd5b5060025461014b906001600160a01b031681565b6040516001600160a01b0390911681526020016100f5565b34801561016f57600080fd5b5061018361017e366004610656565b61044e565b6040516100f5949392919061066f565b34801561019f57600080fd5b506100eb6601c6bf5263400081565b61009e61050d565b3480156101c257600080fd5b506100eb66038d7ea4c6800081565b66038d7ea4c68000803410156102255760405162461bcd60e51b8152602060048201526014602482015273125b9cdd59999a58da595b9d081c185e5b595b9d60621b60448201526064015b60405180910390fd5b60003384844260405160200161023e94939291906106dd565b60408051601f19818403018152918152815160209283012060008181529283905291206003015490915060ff16156102b15760405162461bcd60e51b81526020600482015260166024820152755061747465726e20616c72656164792065786973747360501b604482015260640161021c565b6040518060800160405280336001600160a01b0316815260200185858080601f01602080910402602001604051908101604052809392919081815260200183838082843760009201829052509385525050426020808501919091526001604094850181905286845283825293909220845181546001600160a01b0319166001600160a01b039091161781559184015191928301916103509150826107a9565b5060408281015160028301556060909201516003909101805460ff19169115159190911790555133907fab986f18c2b46db75bad22bf10c48ca7bc17f72c335743fdf393200f3f611af7906103aa90879087908690610869565b60405180910390a250505050565b6002546001600160a01b031633146104125760405162461bcd60e51b815260206004820152601760248201527f4f6e6c79206f776e65722063616e207769746864726177000000000000000000604482015260640161021c565b6002546040516001600160a01b03909116904780156108fc02916000818181858888f1935050505015801561044b573d6000803e3d6000fd5b50565b600060208190529081526040902080546001820180546001600160a01b03909216929161047a90610720565b80601f01602080910402602001604051908101604052809291908181526020018280546104a690610720565b80156104f35780601f106104c8576101008083540402835291602001916104f3565b820191906000526020600020905b8154815290600101906020018083116104d657829003601f168201915b50505050600283015460039093015491929160ff16905084565b6601c6bf526340008034101561055c5760405162461bcd60e51b8152602060048201526014602482015273125b9cdd59999a58da595b9d081c185e5b595b9d60621b604482015260640161021c565b336000908152600160205260408120805491610577836108a2565b909155505060405142815233907fea32a03505fd9f04d664676d72295a86c5fb0465e69654751907ca305bc1d1c79060200160405180910390a250565b600080602083850312156105c757600080fd5b823567ffffffffffffffff808211156105df57600080fd5b818501915085601f8301126105f357600080fd5b81358181111561060257600080fd5b86602082850101111561061457600080fd5b60209290920196919550909350505050565b60006020828403121561063857600080fd5b81356001600160a01b038116811461064f57600080fd5b9392505050565b60006020828403121561066857600080fd5b5035919050565b60018060a01b038516815260006020608081840152855180608085015260005b818110156106ab5787810183015185820160a00152820161068f565b50600060a0828601015260a0601f19601f83011685010192505050836040830152821515606083015295945050505050565b6bffffffffffffffffffffffff198560601b16815282846014830137601492019182015260340192915050565b634e487b7160e01b600052604160045260246000fd5b600181811c9082168061073457607f821691505b60208210810361075457634e487b7160e01b600052602260045260246000fd5b50919050565b601f8211156107a457600081815260208120601f850160051c810160208610156107815750805b601f850160051c820191505b818110156107a05782815560010161078d565b5050505b505050565b815167ffffffffffffffff8111156107c3576107c361070a565b6107d7816107d18454610720565b8461075a565b602080601f83116001811461080c57600084156107f45750858301515b600019600386901b1c1916600185901b1785556107a0565b600085815260208120601f198616915b8281101561083b5788860151825594840194600190910190840161081c565b50858210156108595787850151600019600388901b60f8161c191681555b5050505050600190811b01905550565b604081528260408201528284606083013760006060848301015260006060601f19601f8601168301019050826020830152949350505050565b6000600182016108c257634e487b7160e01b600052601160045260246000fd5b506001019056fea26469706673582212208d3beb41914db626b31b8f40c95c48299bba3a34336d011e59ed62a9ca8ef5bf64736f6c63430008130033",
  "linkReferences": {},
  "deployedLinkReferences": {}
}