{
  "_format": "hh-sol-artifact-1",
  "contractName": "GameOfLife",
  "sourceName": "contracts/GameOfLife.sol",
  "abi": [
    {
      "inputs": [],
      "stateMutability": "nonpayable",
      "type": "constructor"
    },
    {
      "anonymous": false,
      "inputs": [
        {
          "indexed": true,
          "internalType": "address",
          "name": "player",
          "type": "address"
        },
        {
          "indexed": false,
          "internalType": "uint256",
          "name": "timestamp",
          "type": "uint256"
        }
      ],
      "name": "GameStarted",
      "type": "event"
    },
    {
      "anonymous": false,
      "inputs": [
        {
          "indexed": true,
          "internalType": "address",
          "name": "creator",
          "type": "address"
        },
        {
          "indexed": false,
          "internalType": "string",
          "name": "ipfsHash",
          "type": "string"
        },
        {
          "indexed": false,
          "internalType": "bytes32",
          "name": "patternId",
          "type": "bytes32"
        }
      ],
      "name": "PatternSaved",
      "type": "event"
    },
    {
      "inputs": [],
      "name": "SAVE_PATTERN_FEE",
      "outputs": [
        {
          "internalType": "uint256",
          "name": "",
          "type": "uint256"
        }
      ],
      "stateMutability": "view",
      "type": "function"
    },
    {
      "inputs": [],
      "name": "START_GAME_FEE",
      "outputs": [
        {
          "internalType": "uint256",
          "name": "",
          "type": "uint256"
        }
      ],
      "stateMutability": "view",
      "type": "function"
    },
    {
      "inputs": [
        {
          "internalType": "address",
          "name": "",
          "type": "address"
        }
      ],
      "name": "gamesPlayed",
      "outputs": [
        {
          "internalType": "uint256",
          "name": "",
          "type": "uint256"
        }
      ],
      "stateMutability": "view",
      "type": "function"
    },
    {
      "inputs": [
        {
          "internalType": "address",
          "name": "player",
          "type": "address"
        }
      ],
      "name": "getPlayerStats",
      "outputs": [
        {
          "internalType": "uint256",
          "name": "totalGames",
          "type": "uint256"
        }
      ],
      "stateMutability": "view",
      "type": "function"
    },
    {
      "inputs": [
        {
          "internalType": "address",
          "name": "user",
          "type": "address"
        }
      ],
      "name": "getUserPatterns",
      "outputs": [
        {
          "internalType": "string[]",
          "name": "",
          "type": "string[]"
        }
      ],
      "stateMutability": "view",
      "type": "function"
    },
    {
      "inputs": [],
      "name": "owner",
      "outputs": [
        {
          "internalType": "address",
          "name": "",
          "type": "address"
        }
      ],
      "stateMutability": "view",
      "type": "function"
    },
    {
      "inputs": [
        {
          "internalType": "bytes32",
          "name": "",
          "type": "bytes32"
        }
      ],
      "name": "patterns",
      "outputs": [
        {
          "internalType": "address",
          "name": "creator",
          "type": "address"
        },
        {
          "internalType": "string",
          "name": "ipfsHash",
          "type": "string"
        },
        {
          "internalType": "uint256",
          "name": "timestamp",
          "type": "uint256"
        },
        {
          "internalType": "bool",
          "name": "exists",
          "type": "bool"
        }
      ],
      "stateMutability": "view",
      "type": "function"
    },
    {
      "inputs": [
        {
          "internalType": "string",
          "name": "ipfsHash",
          "type": "string"
        }
      ],
      "name": "savePattern",
      "outputs": [],
      "stateMutability": "payable",
      "type": "function"
    },
    {
      "inputs": [],
      "name": "startGame",
      "outputs": [],
      "stateMutability": "payable",
      "type": "function"
    },
    {
      "inputs": [
        {
          "internalType": "address",
          "name": "",
          "type": "address"
        },
        {
          "internalType": "uint256",
          "name": "",
          "type": "uint256"
        }
      ],
      "name": "userPatterns",
      "outputs": [
        {
          "internalType": "string",
          "name": "",
          "type": "string"
        }
      ],
      "stateMutability": "view",
      "type": "function"
    },
    {
      "inputs": [],
      "name": "withdraw",
      "outputs": [],
      "stateMutability": "nonpayable",
      "type": "function"
    }
  ],
  "bytecode": "0x608060405234801561001057600080fd5b50600380546001600160a01b03191633179055610ccf806100326000396000f3fe60806040526004361061009c5760003560e01c80637b15d819116100645780637b15d819146101725780638da5cb5b1461019f5780639b0c7a6a146101d7578063a3b03ead14610207578063d65ab5f214610222578063f09409f31461022a57600080fd5b8063024c9b2d146100a15780632188d610146100b65780633ccfd60b146100ec5780634fd66eae1461010157806370180bc114610145575b600080fd5b6100b46100af366004610802565b610245565b005b3480156100c257600080fd5b506100d66100d1366004610890565b61045e565b6040516100e391906108f8565b60405180910390f35b3480156100f857600080fd5b506100b461054d565b34801561010d57600080fd5b5061013761011c366004610890565b6001600160a01b031660009081526002602052604090205490565b6040519081526020016100e3565b34801561015157600080fd5b50610137610160366004610890565b60026020526000908152604090205481565b34801561017e57600080fd5b5061019261018d36600461095a565b6105e3565b6040516100e39190610984565b3480156101ab57600080fd5b506003546101bf906001600160a01b031681565b6040516001600160a01b0390911681526020016100e3565b3480156101e357600080fd5b506101f76101f2366004610997565b61069c565b6040516100e394939291906109b0565b34801561021357600080fd5b506101376601c6bf5263400081565b6100b461075b565b34801561023657600080fd5b5061013766038d7ea4c6800081565b66038d7ea4c68000803410156102995760405162461bcd60e51b8152602060048201526014602482015273125b9cdd59999a58da595b9d081c185e5b595b9d60621b60448201526064015b60405180910390fd5b6000338484426040516020016102b294939291906109ec565b60408051601f19818403018152918152815160209283012060008181529283905291206003015490915060ff16156103255760405162461bcd60e51b81526020600482015260166024820152755061747465726e20616c72656164792065786973747360501b6044820152606401610290565b6040518060800160405280336001600160a01b0316815260200185858080601f01602080910402602001604051908101604052809392919081815260200183838082843760009201829052509385525050426020808501919091526001604094850181905286845283825293909220845181546001600160a01b0319166001600160a01b039091161781559184015191928301916103c4915082610ab8565b5060408281015160028301556060909201516003909101805460ff19169115159190911790553360009081526001602081815292822080549182018155825291902001610412848683610b78565b50336001600160a01b03167fab986f18c2b46db75bad22bf10c48ca7bc17f72c335743fdf393200f3f611af785858460405161045093929190610c39565b60405180910390a250505050565b6001600160a01b0381166000908152600160209081526040808320805482518185028101850190935280835260609492939192909184015b828210156105425783829060005260206000200180546104b590610a2f565b80601f01602080910402602001604051908101604052809291908181526020018280546104e190610a2f565b801561052e5780601f106105035761010080835404028352916020019161052e565b820191906000526020600020905b81548152906001019060200180831161051157829003601f168201915b505050505081526020019060010190610496565b505050509050919050565b6003546001600160a01b031633146105a75760405162461bcd60e51b815260206004820152601760248201527f4f6e6c79206f776e65722063616e2077697468647261770000000000000000006044820152606401610290565b6003546040516001600160a01b03909116904780156108fc02916000818181858888f193505050501580156105e0573d6000803e3d6000fd5b50565b600160205281600052604060002081815481106105ff57600080fd5b9060005260206000200160009150915050805461061b90610a2f565b80601f016020809104026020016040519081016040528092919081815260200182805461064790610a2f565b80156106945780601f1061066957610100808354040283529160200191610694565b820191906000526020600020905b81548152906001019060200180831161067757829003601f168201915b505050505081565b600060208190529081526040902080546001820180546001600160a01b0390921692916106c890610a2f565b80601f01602080910402602001604051908101604052809291908181526020018280546106f490610a2f565b80156107415780601f1061071657610100808354040283529160200191610741565b820191906000526020600020905b81548152906001019060200180831161072457829003601f168201915b50505050600283015460039093015491929160ff16905084565b6601c6bf52634000803410156107aa5760405162461bcd60e51b8152602060048201526014602482015273125b9cdd59999a58da595b9d081c185e5b595b9d60621b6044820152606401610290565b3360009081526002602052604081208054916107c583610c72565b909155505060405142815233907fea32a03505fd9f04d664676d72295a86c5fb0465e69654751907ca305bc1d1c79060200160405180910390a250565b6000806020838503121561081557600080fd5b823567ffffffffffffffff8082111561082d57600080fd5b818501915085601f83011261084157600080fd5b81358181111561085057600080fd5b86602082850101111561086257600080fd5b60209290920196919550909350505050565b80356001600160a01b038116811461088b57600080fd5b919050565b6000602082840312156108a257600080fd5b6108ab82610874565b9392505050565b6000815180845260005b818110156108d8576020818501810151868301820152016108bc565b506000602082860101526020601f19601f83011685010191505092915050565b6000602080830181845280855180835260408601915060408160051b870101925083870160005b8281101561094d57603f1988860301845261093b8583516108b2565b9450928501929085019060010161091f565b5092979650505050505050565b6000806040838503121561096d57600080fd5b61097683610874565b946020939093013593505050565b6020815260006108ab60208301846108b2565b6000602082840312156109a957600080fd5b5035919050565b6001600160a01b03851681526080602082018190526000906109d4908301866108b2565b60408301949094525090151560609091015292915050565b6bffffffffffffffffffffffff198560601b16815282846014830137601492019182015260340192915050565b634e487b7160e01b600052604160045260246000fd5b600181811c90821680610a4357607f821691505b602082108103610a6357634e487b7160e01b600052602260045260246000fd5b50919050565b601f821115610ab357600081815260208120601f850160051c81016020861015610a905750805b601f850160051c820191505b81811015610aaf57828155600101610a9c565b5050505b505050565b815167ffffffffffffffff811115610ad257610ad2610a19565b610ae681610ae08454610a2f565b84610a69565b602080601f831160018114610b1b5760008415610b035750858301515b600019600386901b1c1916600185901b178555610aaf565b600085815260208120601f198616915b82811015610b4a57888601518255948401946001909101908401610b2b565b5085821015610b685787850151600019600388901b60f8161c191681555b5050505050600190811b01905550565b67ffffffffffffffff831115610b9057610b90610a19565b610ba483610b9e8354610a2f565b83610a69565b6000601f841160018114610bd85760008515610bc05750838201355b600019600387901b1c1916600186901b178355610c32565b600083815260209020601f19861690835b82811015610c095786850135825560209485019460019092019101610be9565b5086821015610c265760001960f88860031b161c19848701351681555b505060018560011b0183555b5050505050565b604081528260408201528284606083013760006060848301015260006060601f19601f8601168301019050826020830152949350505050565b600060018201610c9257634e487b7160e01b600052601160045260246000fd5b506001019056fea26469706673582212207cbf4b04157f9744b4ac089415cc9a3f2328fee39212506afbbd23c8ce29e5ab64736f6c63430008130033",
  "linkReferences": {},
  "deployedLinkReferences": {}
}